:100000000C9434000C947B000C9446000C94460035
:100010000C9446000C9446000C9446000C94460048
:100020000C9446000C9446000C9446000C94460038
:100030000C9446000C9446000C9446000C94460028
:100040000C9446000C9446000C9446000C94460018
:100050000C9446000C9446000C9446000C94460008
:100060000C9446000C94460011241FBECFEFD8E03C
:10007000DEBFCDBF11E0A0E0B1E001C01D92A43011
:10008000B107E1F70E9448000C94A0000C94000016
:10009000219A8FEF84B9E89A9091690093609093C8
:1000A0006900109200011092010110920201109259
:1000B00003018BB9789485B9809100019091010179
:1000C000A0910201B09103014597A105B10514F477
:1000D000299AF2CF15B8F0CFE89AE9E6F0E08081EE
:1000E000836080831092000110920101109202013E
:1000F0001092030108951F920F920FB60F921124D0
:100100008F939F93AF93BF938091000190910101D2
:10011000A0910201B09103010196A11DB11D809330
:10012000000190930101A0930201B0930301BF91DC
:10013000AF919F918F910F900FBE0F901F901895C8
:04014000F894FFCF61
:00000001FF
