:100000000C9434000C9481000C94BE000C944600B7
:100010000C9446000C9446000C9446000C94460048
:100020000C9446000C9446000C9446000C94460038
:100030000C9446000C9446000C9446000C94460028
:100040000C9446000C9446000C9446000C94460018
:100050000C9446000C9446000C9446000C94460008
:100060000C9446000C94460011241FBECFEFD8E03C
:10007000DEBFCDBF11E0A0E0B1E001C01D92A53010
:10008000B107E1F70E9448000C94FB000C940000BB
:10009000219A8FEF84B98DB383608DBB8091690005
:1000A0008560809369001092010110920201109204
:1000B0000301109204011BB878948FEF85B98091E9
:1000C000010190910201A0910301B0910401805AB5
:1000D0009540A040B04014F0299AF1CF2998EFCF75
:1000E0008DB383608DBBE9E6F0E08081856080831D
:1000F000109201011092020110920301109204016A
:1001000008951F920F920FB60F9211248F939F9311
:10011000AF93BF934B9B03C04A9B03C010C04A9B45
:100120000EC0109200018091010190910201A091F6
:100130000301B09104010197A109B1090EC081E04A
:10014000809300018091010190910201A09103012F
:10015000B09104010196A11DB11D809301019093FE
:100160000201A0930301B0930401BF91AF919F914D
:100170008F910F900FBE0F901F9018951F920F92A6
:100180000FB60F9211248F939F93AF93BF934B9B06
:1001900003C04A9B03C011C04A9B0FC081E08093FB
:1001A00000018091010190910201A0910301B091A1
:1001B00004010196A11DB11D0DC010920001809196
:1001C000010190910201A0910301B09104010197F6
:1001D000A109B1098093010190930201A093030149
:1001E000B0930401BF91AF919F918F910F900FBE7B
:0A01F0000F901F901895F894FFCFB0
:00000001FF
