:100000000C9434000C9446000C9446000C9446006A
:100010000C9446000C9446000C9446000C94460048
:100020000C9446000C9446000C9446000C948700F7
:100030000C9446000C9446000C9446000C94460028
:100040000C9446000C9446000C9446000C94460018
:100050000C9446000C9446000C9446000C94460008
:100060000C9446000C94460011241FBECFEFD8E03C
:10007000DEBFCDBF11E0A0E0B1E001C01D92A23013
:10008000B107E1F70E9448000C9491000C94000025
:1000900084B18E6084B984E690E090938900809367
:1000A00088008DE790E090938B0080938A00809188
:1000B0008000806A809380008091800083608093BC
:1000C00080008091810088608093810080916F0022
:1000D000826080936F00789480918100816080932A
:1000E0008100809100019091010120E23EE40A9696
:1000F00043E08C3F940714F080E090E02B9A9093BB
:10010000890080938800F9013197F1F7F0CF1F92B1
:100110000F920FB60F9211240F900FBE0F901F90E9
:060120001895F894FFCFD2
:00000001FF
