:100000000C9434000C943E000C943E000C943E0082
:100010000C943E000C943E000C943E000C943E0068
:100020000C943E000C943E000C943E000C94860010
:100030000C943E000C943E000C943E000C943E0048
:100040000C943E000C943E000C943E000C943E0038
:100050000C943E000C943E000C943E000C943E0028
:100060000C943E000C943E0011241FBECFEFD8E04C
:10007000DEBFCDBF0E9454000C94AE000C94000073
:1000800080917A00806480937A0080917A0084FF66
:10009000FCCF80917A00806180937A002091780073
:1000A00030917900C901089580917C00806480932B
:1000B0007C0080917A00876880937A0084B18E609A
:1000C00084B910928900109288008DE790E0909397
:1000D0008B0080938A0080918000806A80938000EA
:1000E000809180008360809380008091810088608F
:1000F0008093810080916F00826080936F0078947C
:1001000080918100816080938100FFCF1F920F92C8
:100110000FB60F9211242F933F934F935F936F93DA
:100120007F938F939F93AF93BF93EF93FF930E941F
:1001300040009093890080938800FF91EF91BF91D8
:10014000AF919F918F917F916F915F914F913F916F
:100150002F910F900FBE0F901F901895F894FFCF1E
:00000001FF
