:100000000C9434000C943E000C943E000C943E0082
:100010000C943E000C943E000C943E000C943E0068
:100020000C943E000C943E000C943E000C943E0058
:100030000C943E000C943E000C9453000C943E0033
:100040000C943E000C943E000C943E000C943E0038
:100050000C943E000C943E000C943E000C943E0028
:100060000C943E000C943E0011241FBECFEFD8E04C
:10007000DEBFCDBF0E9450000C9465000C940000C0
:10008000569A84B5826084BD85B5856085BD82E65B
:1000900087BDEEE6F0E080818260808378940895E9
:1000A0000E944000FFCF1F920F920FB60F921124B3
:1000B0008F939F938BB190E489278BB99F918F91F8
:0E00C0000F900FBE0F901F901895F894FFCF71
:00000001FF
