:100000000C9434000C945E010C949B010C945100F0
:100010000C9451000C9451000C9451000C9451001C
:100020000C9451000C9451000C9451000C9451000C
:100030000C9451000C9451000C94D8010C94510074
:100040000C9451000C9451000C9451000C945100EC
:100050000C9451000C9451000C9451000C945100DC
:100060000C9451000C94510011241FBECFEFD8E026
:10007000DEBFCDBF11E0A0E0B1E0E8E7F8E002C0EC
:1000800005900D92A430B107D9F711E0A4E0B1E0DA
:1000900001C01D92AB30B107E1F70E941B010C9427
:1000A0003A040C9400008DB383608DBBE9E6F0E068
:1000B0008081856080831092070110920801109260
:1000C000090110920A01089584B5826084BD85B546
:1000D000856085BD8BE487BDEEE6F0E080818260BF
:1000E000808378940895E1E8F0E080818A608083DD
:1000F000E0E8F0E0808180648083109285001092B7
:1001000084001092890010928800219A0895EF923D
:10011000FF920F931F937B018C010E94F00270935A
:10012000050160930401C801B7012DEC3CEC4CECD7
:100130005DE30E948402181634F0809180008F7B6A
:100140008093800041C06091000170910101809115
:100150000201909103010E9423039B01AC01C8019D
:10016000B7010E94D3038823B4F08091800080649B
:1001700080938000609100017091010180910201E3
:10018000909103010E9423039B01AC0168E07CE78E
:1001900082E994E40BC080918000806480938000A9
:1001A00068E07CE782E994E4A80197010E94880254
:1001B00020E030E040E85FE30E941F020E94F50269
:1001C00070938900609388001F910F91FF90EF90CA
:1001D0000895EF92FF920F931F937B018C01E21A17
:1001E000F30A040B150BC801B7010E94230320E09A
:1001F00030E040EA50E40E94D7030E94F00297FFEB
:1002000009C02A9890958095709561957F4F8F4F82
:100210009F4F01C02A9A0E9423030E94870080E01A
:10022000E114F1040105110509F481E01F910F911A
:10023000FF90EF900895CF93DF938DB383608DBBD4
:100240008091690085608093690010920701109287
:1002500008011092090110920A010E9464000E9494
:100260007300789484B1856084B9C0E2DEE4609163
:100270000701709108018091090190910A0120E421
:1002800038E340E050E00E94E900882381F3CE018A
:100290000197F1F7609107017091080180910901C0
:1002A00090910A0120E030E040E050E00E94E90037
:1002B000882381F3CE010197F1F7D9CF1F920F92D6
:1002C0000FB60F9211248F939F93AF93BF934B9BC5
:1002D00003C04A9B03C010C04A9B0EC01092060187
:1002E0008091070190910801A0910901B0910A0144
:1002F0000197A109B1090EC081E0809306018091A8
:10030000070190910801A0910901B0910A0101969D
:10031000A11DB11D8093070190930801A0930901CD
:10032000B0930A01BF91AF919F918F910F900FBE33
:100330000F901F9018951F920F920FB60F921124D5
:100340008F939F93AF93BF934B9B03C04A9B03C074
:1003500011C04A9B0FC081E0809306018091070184
:1003600090910801A0910901B0910A010196A11D87
:10037000B11D0DC0109206018091070190910801F6
:10038000A0910901B0910A010197A109B1098093D7
:10039000070190930801A0930901B0930A01BF914E
:1003A000AF919F918F910F900FBE0F901F90189556
:1003B0001F920F920FB60F9211242F938F939F933A
:1003C000AF93BF938091000190910101A091020130
:1003D000B09103018F559140A040B0409CF48091B2
:1003E000000190910101A0910201B09103010596D5
:1003F000A11DB11D8093000190930101A093020102
:10040000B093030180910401909105018C3D910509
:1004100064F48CED90E0A0E0B0E080930001909354
:100420000101A0930201B0930301BF91AF919F918D
:100430008F912F910F900FBE0F901F9018955058CD
:10044000BB27AA270ED075C166D130F06BD120F042
:1004500031F49F3F11F41EF45BC10EF4E095E7FB0D
:1004600051C1E92F77D180F3BA1762077307840768
:10047000950718F071F49EF58FC10EF4E0950B2EE0
:10048000BA2FA02D0B01B90190010C01CA01A001E6
:100490001124FF27591B99F0593F50F4503E68F141
:1004A0001A16F040A22F232F342F4427585FF3CF82
:1004B000469537952795A795F0405395C9F77EF453
:1004C0001F16BA0B620B730B840BBAF09150A1F09C
:1004D000FF0FBB1F661F771F881FC2F70EC0BA0F22
:1004E000621F731F841F48F4879577956795B795AA
:1004F000F7959E3F08F0B3CF9395880F08F09927A2
:10050000EE0F979587950895D9D008F481E0089566
:100510000CD00FC107D140F0FED030F021F45F3F86
:1005200019F0F0C0511139C1F3C014D198F39923D7
:10053000C9F35523B1F3951B550BBB27AA276217A7
:100540007307840738F09F5F5F4F220F331F441FEC
:10055000AA1FA9F333D00E2E3AF0E0E830D0915024
:100560005040E695001CCAF729D0FE2F27D0660F11
:10057000771F881FBB1F261737074807AB07B0E850
:1005800009F0BB0B802DBF01FF2793585F4F2AF066
:100590009E3F510568F0B6C000C15F3FECF3983E46
:1005A000DCF3869577956795B795F7959F5FC9F7C3
:1005B000880F911D9695879597F90895E1E0660F4C
:1005C000771F881FBB1F621773078407BA0720F0C5
:1005D000621B730B840BBA0BEE1F88F7E09508952E
:1005E00004D06894B111D9C00895BCD088F09F5749
:1005F00090F0B92F9927B751A0F0D1F0660F771F6F
:10060000881F991F1AF0BA95C9F712C0B13081F04E
:10061000C3D0B1E00895C0C0672F782F8827B85F96
:1006200039F0B93FCCF3869577956795B395D9F7AF
:100630003EF490958095709561957F4F8F4F9F4FB9
:100640000895E89409C097FB3EF4909580957095C5
:1006500061957F4F8F4F9F4F9923A9F0F92F96E90E
:10066000BB279395F695879577956795B795F11183
:10067000F8CFFAF4BB0F11F460FF1BC06F5F7F4F20
:100680008F4F9F4F16C0882311F096E911C0772332
:1006900021F09EE8872F762F05C0662371F096E83B
:1006A000862F70E060E02AF09A95660F771F881F0A
:1006B000DAF7880F9695879597F90895990F0008AE
:1006C000550FAA0BE0E8FEEF16161706E807F90724
:1006D000C0F012161306E407F50798F0621B730BBF
:1006E000840B950B39F40A2661F0232B242B252B40
:1006F00021F408950A2609F4A140A6958FEF811DE3
:10070000811D089597F99F6780E870E060E0089583
:100710009FEF80EC089500240A9416161706180619
:100720000906089500240A941216130614060506F5
:100730000895092E0394000C11F4882352F0BB0F86
:1007400040F4BF2B11F460FF04C06F5F7F4F8F4FE9
:100750009F4F089557FD9058440F551F59F05F3F24
:1007600071F04795880F97FB991F61F09F3F79F0D3
:1007700087950895121613061406551FF2CF469555
:10078000F1DF08C0161617061806991FF1CF8695D7
:100790007105610508940895E894BB2766277727BB
:1007A000CB0197F908958ADF08F48FEF08950BD0F5
:1007B000C0CFB1DF28F0B6DF18F0952309F0A2CF43
:1007C000A7CF1124EACFC6DFA0F3959FD1F3950FF1
:1007D00050E0551F629FF001729FBB27F00DB11DC5
:1007E000639FAA27F00DB11DAA1F649F6627B00D55
:1007F000A11D661F829F2227B00DA11D621F739F3E
:10080000B00DA11D621F839FA00D611D221F749F4B
:100810003327A00D611D231F849F600D211D822F92
:10082000762F6A2F11249F5750408AF0E1F08823D9
:100830004AF0EE0FFF1FBB1F661F771F881F9150E6
:100840005040A9F79E3F510570F05CCFA6CF5F3FA7
:10085000ECF3983EDCF3869577956795B795F79519
:10086000E7959F5FC1F7FE2B880F911D96958795A1
:0808700097F90895F894FFCFF9
:04087800DC000000A0
:00000001FF
