:100000000C9434000C943E000C943E000C943E0082
:100010000C943E000C943E000C943E000C943E0068
:100020000C943E000C943E000C943E000C943E0058
:100030000C943E000C943E000C943E000C943E0048
:100040000C943E000C943E000C943E000C943E0038
:100050000C943E000C943E000C943E000C943E0028
:100060000C943E000C943E0011241FBECFEFD8E04C
:10007000DEBFCDBF0E94AF000C9495020C9400002F
:10008000E1E8F0E080818A608083E0E8F0E0808150
:100090008064808310928500109284001092890001
:1000A00010928800089580917A00806480937A008D
:1000B00080917A0084FFFCCF80917A0080618093E8
:1000C0007A002091780030917900C9010895EF926B
:1000D000FF920F931F937B018C012DEC3CEC4CECB9
:1000E0005DE30E944701181634F0809180008F7BF9
:1000F000809380002FC0C801B70120E030E442E1C6
:1001000054E40E949102882364F08091800080640E
:100110008093800081E090E0909389008093880034
:1001200019C08091800080648093800068E07CE743
:1001300082E994E4A80197010E944B0120E030E09D
:1001400040E85FE30E94E2000E94B30170938900DF
:10015000609388001F910F91FF90EF9008950F9387
:100160001F93CF93DF93219A80917C0080648093CA
:100170007C0080917A00876880937A000E9440001A
:1001800060E070E080E090E00E946700C0E0D0E0B6
:1001900000E21EE4BE01882777FD8095982F0E941B
:1001A000E1010E946700C8010197F1F7219681E003
:1001B000C738D80779F780E090E0DF91CF911F91A1
:1001C0000F9108955058BB27AA270ED070C161D156
:1001D00030F066D120F031F49F3F11F41EF456C187
:1001E0000EF4E095E7FB4CC1E92F72D180F3BA170A
:1001F000620773078407950718F071F49EF58AC1AA
:100200000EF4E0950B2EBA2FA02D0B01B901900131
:100210000C01CA01A0011124FF27591B99F0593F75
:1002200050F4503E68F11A16F040A22F232F342FBD
:100230004427585FF3CF469537952795A795F0400B
:100240005395C9F77EF41F16BA0B620B730B840B20
:10025000BAF09150A1F0FF0FBB1F661F771F881FD8
:10026000C2F70EC0BA0F621F731F841F48F4879530
:1002700077956795B795F7959E3F08F0B3CF93951F
:10028000880F08F09927EE0F979587950895D4D099
:1002900008F481E008950CD00AC102D140F0F9D0F1
:1002A00030F021F45F3F19F0EBC0511134C1EEC0C2
:1002B0000FD198F39923C9F35523B1F3951B550B2F
:1002C000BB27AA2762177307840738F09F5F5F4F29
:1002D000220F331F441FAA1FA9F333D00E2E3AF06A
:1002E000E0E830D091505040E695001CCAF729D084
:1002F000FE2F27D0660F771F881FBB1F26173707D3
:100300004807AB07B0E809F0BB0B802DBF01FF2702
:1003100093585F4F2AF09E3F510568F0B1C0FBC073
:100320005F3FECF3983EDCF3869577956795B7953C
:10033000F7959F5FC9F7880F911D9695879597F957
:100340000895E1E0660F771F881FBB1F62177307D0
:100350008407BA0720F0621B730B840BBA0BEE1FE5
:1003600088F7E0950895BCD088F09F5790F0B92F9A
:100370009927B751A0F0D1F0660F771F881F991FFA
:100380001AF0BA95C9F712C0B13081F0C3D0B1E00C
:100390000895C0C0672F782F8827B85F39F0B93F1C
:1003A000CCF3869577956795B395D9F73EF49095FC
:1003B0008095709561957F4F8F4F9F4F0895E8947A
:1003C00009C097FB3EF490958095709561957F4F9D
:1003D0008F4F9F4F9923A9F0F92F96E9BB2793954B
:1003E000F695879577956795B795F111F8CFFAF45B
:1003F000BB0F11F460FF1BC06F5F7F4F8F4F9F4F8C
:1004000016C0882311F096E911C0772321F09EE8E9
:10041000872F762F05C0662371F096E8862F70E04F
:1004200060E02AF09A95660F771F881FDAF7880F29
:100430009695879597F90895990F0008550FAA0B7F
:10044000E0E8FEEF16161706E807F907C0F01216E7
:100450001306E407F50798F0621B730B840B950BEA
:1004600039F40A2661F0232B242B252B21F408953F
:100470000A2609F4A140A6958FEF811D811D0895DC
:1004800097F99F6780E870E060E008959FEF80EC47
:10049000089500240A9416161706180609060895EA
:1004A00000240A9412161306140605060895092E50
:1004B0000394000C11F4882352F0BB0F40F4BF2BBF
:1004C00011F460FF04C06F5F7F4F8F4F9F4F0895FF
:1004D00057FD9058440F551F59F05F3F71F04795F5
:1004E000880F97FB991F61F09F3F79F087950895DA
:1004F000121613061406551FF2CF4695F1DF08C0F9
:10050000161617061806991FF1CF86957105610515
:1005100008940895E894BB2766277727CB0197F9BD
:0E05200008958ADF08F48FEF0895F894FFCF56
:00000001FF
